:1000000000800020BD010000311F0000FD1E000027
:10001000FD1E0000FD1E0000FD1E0000FD1E000074
:10002000FD1E0000FD1E0000FD1E0000311F00002F
:10003000311F0000FD1E0000311F0000ED1E0000FA
:10004000311F0000311F0000311F0000311F000070
:10005000311F0000311F0000311F0000311F000060
:10006000311F0000311F0000311F0000311F000050
:10007000311F0000311F0000311F0000311F000040
:10008000311F0000311F0000311F0000311F000030
:10009000311F0000311F0000311F0000311F000020
:1000A0002D780000311F0000311F0000311F0000BB
:1000B000311F0000311F0000311F0000311F000000
:1000C000311F0000311F0000311F0000311F0000F0
:1000D000311F0000311F0000311F0000311F0000E0
:1000E000311F0000311F0000311F0000311F0000D0
:1000F000311F0000D90E0000311F00004D15000017
:10010000311F00004D1A0000311F0000311F000098
:10011000311F0000311F0000311F0000311F00009F
:10012000311F0000311F0000311F0000311F00008F
:10013000311F0000311F0000311F0000311F00007F
:10014000311F0000311F0000311F0000311F00006F
:10015000311F0000311F0000311F0000311F00005F
:10016000F974000045260000311F0000311F000017
:10017000311F0000311F0000311F0000311F00003F
:10018000311F0000311F0000311F0000311F00002F
:10019000311F0000311F0000311F0000311F00001F
:1001A000311F0000311F0000311F0000311F00000F
:1001B000311F0000311F0000311F0000564B4CF270
:1001C000205210B51A804DF628121A8000BF00BFC9
:1001D00001F0B2FE514B4FF010621A60504A9A6023
:1001E000504ADA60A3F53043203B1A6812F480725B
:1001F00004D14D490A604FF4A8521A604B4B1A784B
:10020000110703D51A7842F008021A70484B2A22C7
:100210001A700023474A48499818884204D247492F
:10022000595899500433F5E7454A464B9A424FF0E6
:10023000000302D242F8043BF7E74349434A5958C6
:1002400099500433B3F5DE7FF7D1414B802103F899
:10025000011B40498B42F9D13F4B1A603F4B0A22A8
:100260001A70A3F5805324225A70A0221A709A792A
:100270009207FCD59A79D406FCD4394B9A7902F0CE
:100280000C02082AF9D105221A7143225A719A796F
:100290009006FCD5324B9A795106FBD5314A4FF086
:1002A000817111600521516020221A702C4B9B79BD
:1002B00003F00C030C2BF9D12B4B2C4A1A602C4B5E
:1002C0002C4A1A6000225A60072243F8042C2A4A5A
:1002D000C3F80C2D62B602F09BF8134B1B68DA07CB
:1002E00005D5264801F0E2FF254B264A1A60264B29
:1002F0001B785B0609D5224C224A2368934204D11D
:100300001E4801F0D3FF002323600BF05FFA01F0D9
:1003100019FE00F03DF9FEE70E2005403080044054
:10032000823F04000100002B14D0034002D007409C
:1003300000E007406087FF1F8888FF1F18E2000069
:100340008888FF1F7890FF1F000000000082FF1FB9
:1003500000E400E05FE400E008ED00E0005006404B
:10036000004006404480044004800440C010050062
:1003700014E000E03F190100000020200171DA576D
:100380001CE00340A5C3945A00F00740FFFFFFFFA5
:10039000FFFFFFFFFFFFFFFFFFFFFFFFFFFFFFFF6D
:1003A000FFFFFFFFFFFFFFFFFFFFFFFFFFFFFFFF5D
:1003B000FFFFFFFFFFFFFFFFFFFFFFFFFFFFFFFF4D
:1003C000FFFFFFFFFFFFFFFFFFFFFFFFFFFFFFFF3D
:1003D000FFFFFFFFFFFFFFFFFFFFFFFFFFFFFFFF2D
:1003E000FFFFFFFFFFFFFFFFFFFFFFFFFFFFFFFF1D
:1003F000FFFFFFFFFFFFFFFFFFFFFFFFFFFFFFFF0D
:10040000FFFFFFFFFFFFFFFFFFFFFFFFDEF9FFFF23
:1004100010B5054C237833B9044B13B10448AFF33E
:1004200000800123237010BD8888FF1F000000009A
:1004300018E2000008B5064B1BB106480649AFF3A9
:1004400000800648036813B1054B03B1984708BD07
:100450000000000018E200008C88FF1F8888FF1F42
:1004600000000000704708B503F006FABDE8084038
:1004700003F0BCBD08B500F011F8034840F6B831F0
:10048000BDE8084003F07AB9A488FF1F024B1B782F
:10049000DB07FBD5704700BF010002407FB51C4B56
:1004A0006A4603F110056E4618685968144603C47D
:1004B0000833AB422246F7D1164B1A7812F0020FDE
:1004C0001D461CD0144A154B117811F0700118BF4D
:1004D000117080221A70002203F8032C33221A7143
:1004E0000322DA7072B60C4C46F001062046B04783
:1004F00062B6237813F0700301D0237005E0084B37
:100500002A78D20701D4013BFAD104B070BD00BFF4
:10051000E2D4000001000240000002400700024057
:10052000410D0300B0F5006F10B504460AD2064B2A
:100530001B78DB0701D4FFF7B1FF04F1A05420784A
:10054000C0B210BD002010BD01000240B0F5006F28
:1005500038B504460D4615D20B4B1B78DB0701D48A
:10056000FFF79CFF04F1A0542378AB420AD0074B5D
:100570001A7812F0700218BF1A702570BDE8384062
:10058000FFF784BF38BD00BF0100024000000240F9
:1005900008B5FFF767FFFFF766FF00F023F8FAE7FB
:1005A00001B5EAB1102A17DB00F0070333B1C3F13C
:1005B0000803D21A013B00F8011BFBDCC9B241EA77
:1005C000012141EA01418C46D308013BE0E8021CCD
:1005D000FBDC12F0070203D0013A00F8011BFBDC40
:1005E00001BD00BF10B50E4C2378BBB901232370A9
:1005F00001F0F6FA08B101F0A2FA00F0F7FB08B139
:1006000000F08AF800F02CFF08B100F00FF901F0BB
:10061000B9F908B100F094F90023237010BD00BFB0
:10062000AC88FF1F08B50368C9B21B68984708BDAE
:1006300008B50368C9B21B68984708BD08B50368C8
:10064000C9B21B68984708BD08B50368C9B21B68E2
:10065000984708BD034800EB5100B0FBF1F000F0F3
:100660007FB900BF0044950810B5064800EB510063
:100670001446B0FBF1F000F073F92046BDE81040DD
:1006800000F0D2B90044950800F0F8B9084600F02F
:1006900029BA084600F078BA0846114600F03EBA7A
:1006A00008B5084600F096FA003018BF012008BDD2
:1006B00008B5084600F0B0FA003018BF012008BDA8
:1006C00000F094BB00F0CCBB00F0A0BB00F072BB0C
:1006D00000F0DEBB00F078BB08B5084600F0C2FAB7
:1006E000012008BD08B5084600F0BCFA012008BD8D
:1006F00010B508461446114600F0FEFA204610BD1B
:1007000038B508460D460BF091F9044621462846B7
:1007100000F0F2FA204638BD7047FFFF044B00227C
:100720001A714FF47A711A73024A99601A6070470D
:10073000B088FF1F00D5000008B50368C9B21B6868
:10074000984708BD08B50368C9B21B68984708BD3B
:1007500008B50368C9B21B68984708BD08B50368A7
:10076000C9B21B68984708BD034800EB5100B0FBB5
:10077000F1F000F035BC00BF0044950810B5064804
:1007800000EB51001446B0FBF1F000F029FC2046CC
:10079000BDE8104000F088BC0044950800F0AEBCF5
:1007A000084600F0DFBC084600F02EBD08461146A2
:1007B00000F0F4BC08B5084600F04EFD003018BF4C
:1007C000012008BD08B5084600F068FD003018BFDC
:1007D000012008BD00F044BE00F07CBE00F050BE19
:1007E00000F022BE00F08EBE00F028BE08B508461C
:1007F00000F072FD012008BD08B5084600F06CFD50
:10080000012008BD10B508461446114600F0AEFDA3
:10081000204610BD38B508460D460BF007F90446D2
:100820002146284600F0A2FD204638BD7047FFFF54
:10083000044B00221A714FF47A711A73024A9960BC
:100840001A607047C088FF1F60D5000008B50368B4
:10085000C9B21B68984708BD08B50368C9B21B68D0
:10086000984708BD08B50368C9B21B68984708BD1A
:1008700008B50368C9B21B68984708BD034800EB78
:100880005100B0FBF1F000F0E5BE00BF00A24A0449
:1008900010B5064800EB51001446B0FBF1F000F033
:1008A000D9FE2046BDE8104000F016BF00A24A0461
:1008B00000F03CBF084600F06DBF084600F0AEBF38
:1008C0000846114600F082BF08B5084600F0A8FFB0
:1008D000003018BF012008BD08B5084600F0C2FF6F
:1008E000003018BF012008BD01F04CB801F084B8F9
:1008F00001F058B801F02AB801F096B801F030B80C
:1009000008B5084600F0CCFF012008BD08B5084630
:1009100000F0C6FF012008BD10B508461446114678
:1009200001F008F8204610BD38B508460D460BF01A
:100930007DF804462146284600F0FCFF204638BDDD
:100940007047FFFF044B00221A714FF47A711A733B
:10095000024A99601A607047D088FF1FC0D5000016
:10096000234B1A6842F480621A60224A00231370F3
:10097000214A1370214A1370214A1370214A1370BF
:10098000214B1B782BB1152B07D140F213321F4B93
:1009900002E01F4B40F213321A601E4B1B78012BF2
:1009A00005D0052B07D14FF451721B4B02E01B4BB6
:1009B0004FF451721A601A4BC0F344321A70C0F3EC
:1009C00047125A700221042200F01F0098729A7098
:1009D000D9745A7588221A743C22DA70114B40225D
:1009E0006FF44A711A700B444FF400521A6070474A
:1009F000348004406789FF1FE588FF1F7089FF1F4F
:100A00006889FF1FE488FF1F2689FF1F18C0044064
:100A100040A004406487FF1F1CC0044044A0044061
:100A200000A006402DE400E0134A937800F0030193
:100A300003F0EC030B43410748BF43F010039370EE
:100A400000F00F03042B0C4903D18B7943F04003D2
:100A50008B715379C20603F0EF03074A48BF43F096
:100A6000100353719379810603F0EF0348BF43F0FD
:100A700010039371704700BF00A0064008B5114BEA
:100A80001B685B0500D408BD0F4B1A7802F0FF030A
:100A900012B1FFF7A7FDF7E70C4A4FF400511160C0
:100AA0000B4A0C49D37040F203120A604A600A4AAA
:100AB00013700A4A13700A4B1B680BB101221A709B
:100AC00008BD00BF34800440E488FF1F84E100E0DB
:100AD00000A0064040A004406789FF1FE588FF1F73
:100AE000E088FF1F38B50446094B1B7803F0FF056B
:100AF000002BF9D12046012101F016FC20462946A1
:100B000001F0E4FB034B53F83420034B1A6038BD6B
:100B1000E488FF1F40D600006C89FF1F10B509B1A3
:100B200040F08000144A13789842144622D0134AA9
:100B3000126852051DD503F07F03012B04D0052B4D
:100B400005D100220E4B01E00E4B00221A60002955
:100B500000F07F020CBF44236023012A05D0052A40
:100B600007D143F44073064A02E0064A43F4407357
:100B70001360207010BD00BF6487FF1F34800440E5
:100B80001CC0044044A004400E4A1378984218D078
:100B90000D490968490513D52BB1152B05D10B4B10
:100BA0000021196001E00A490B6028B1152807D11E
:100BB00040F21331054B02E0054B40F2133119604E
:100BC000107070472689FF1F3480044018C004400D
:100BD00040A004400D4A38B5146814F480624FF008
:100BE000000410D021280A4D0AD80A4A012152F8DF
:100BF00030302B6001F098FB2B681C70012038BD51
:100C00002C60204638BD104638BD00BF34800440FB
:100C1000E088FF1F40D600000E4B1B6813F4806372
:100C200016D012280C4B03D140F202310B4A04E0DB
:100C3000142809D10A4A40F2023111605A7B42F06D
:100C400001025A73012070475A7B02F0FE025A7368
:100C5000002070473480044000A006400CA00440EF
:100C600014C00440F8B51D4B1B685A05064633D521
:100C70001B4B1B680BB101221A701A4B1C780134F4
:100C8000402C1F4628BF0024174D2B78A34218D1B3
:100C900001F06CF940280FDC144A13791B06F3D5D8
:100CA0002B7813490133402B28BF0023C95CDBB2EA
:100CB000C9B2D1712B70E7E7FF28E5DDFFF792FCA1
:100CC000E2E70B4BF6B21E550A4B01221A70074B96
:100CD000E4B2BC223C70DA70F8BD00BF348004403E
:100CE0006C89FF1F7089FF1F6889FF1F00A00640E5
:100CF000E688FF1FE488FF1F274B1B685A052DE974
:100D0000F04707468A4644D5244B1B680BB10122A5
:100D10001A703D4607EB0A039D4237D2DFF89080F8
:100D20001F4E98F8004096F800900134402C28BFE0
:100D300000245FFA89F9A1451DD11A4BBC22DA7053
:100D400001F014F940280FDC164A13791B060FD561
:100D5000337815490133402B28BF0023C95CDBB22F
:100D6000C9B2D171337003E0FF2801DDFFF73AFC0F
:100D700033784B45E4D00C4B15F8012B1A550B4B2F
:100D80000122E4B21A7088F80040C3E7054BBC2288
:100D9000DA70BDE8F08700BF348004406C89FF1F23
:100DA0006889FF1F00A00640E688FF1FE488FF1F38
:100DB0007089FF1F08B5034B1B7813B1FFF712FCB6
:100DC000F9E708BDE488FF1F064A074B1B78107837
:100DD000DBB2C0B283422CBF3F3000F1FF30C01AFB
:100DE000704700BF6889FF1F7089FF1F054B187887
:100DF000054B1B78C0B2DBB2984238BF4030C01AF6
:100E0000704700BF6789FF1FE588FF1F10B5104BB3
:100E100010491A780B78D2B2DBB29A4214D001335F
:100E2000402B28BF00230C48DCB2C05C0C700B497F
:100E30000968C0B251B19A4238BF4032D31A1A2B56
:100E400004DC00230B7010BD4FF0FF3010BD00BF5D
:100E50006789FF1FE588FF1F2789FF1FE088FF1FA5
:100E6000084B1A78084B1B78DBB29A4207D0013343
:100E7000402B28BF0023054AD05CC0B270474FF01A
:100E8000FF3070476789FF1FE588FF1F2789FF1F15
:100E90000C4B1B685B0514D50B4BDA7802F0CB02C8
:100EA000DA7040225A74DA7842F03402DA70074B72
:100EB0001A78074BD2B21A70064B1B680BB100228E
:100EC0001A7070473480044000A00640E588FF1F78
:100ED0006789FF1FE088FF1F30B5374B1A7912F082
:100EE000300F31D072B69A7D02F0FF0022B9DA7964
:100EF00040225A7462B627E062B6304A304913780D
:100F00000978DBB2C9B214462B4AD5795A1C402A5B
:100F100028BF00228A42EDB202D02A4B9D541346CC
:100F2000421E12F0FF00EFD1DAB22270264A126898
:100F300052B18B4236BFC1F14001C1EB03035B18D4
:100F4000272BC4BF012313701B4BD978C9B20C06E1
:100F500020D51B7918061DD51C4B1D4A1D7813780A
:100F6000EDB2DBB21046AB420CD0134A0133402B3A
:100F70001479184C28BF0023E45CE4B2D471127DCC
:100F8000072AF0D9DBB203700B4B1A79120644BF63
:100F90007C22DA704B060ED5074B1A7912F0400FFF
:100FA000194608D00C4B00221A700C4B1B6803B179
:100FB0001A703C23CB7030BD00A006406789FF1F2C
:100FC000E588FF1F2789FF1FE088FF1F7089FF1F2B
:100FD0006889FF1FE688FF1FE488FF1F6C89FF1FD9
:100FE000234B1A6842F400621A60224A00231370ED
:100FF000214A1370214A1370214A1370214A137039
:10100000214B1B78092B05D01A2B07D140F2133244
:101010001E4B02E01E4B40F213321A601D4B1B7830
:101020000A2B05D01F2B07D14FF451721A4B02E047
:101030001A4B4FF451721A60194BC0F344321A70B4
:10104000C0F347125A7000F01F0004220221987268
:101050009A70D9745A7588221A743C22DA70114B2E
:1010600040221A70A3F22B334FF400421A607047EB
:1010700034800440E289FF1F7989FF1FE889FF1F40
:10108000E389FF1F7889FF1F6587FF1F04D0044095
:101090000CB004406687FF1F00D0044010B004402D
:1010A00000B006402FE400E0134A937800F00301FB
:1010B00003F0EC030B43410748BF43F01003937068
:1010C00000F00F03042B0C4903D18B7943F040034C
:1010D0008B715379C20603F0EF03074A48BF43F010
:1010E000100353719379810603F0EF0348BF43F077
:1010F00010039371704700BF00B0064008B5114B54
:101100001B681B0500D408BD0F4B1A7802F0FF03C3
:1011100012B1FFF767FAF7E70C4A4FF4004111608C
:101120000B4A0C49D37040F203120A604A600A4A23
:1011300013700A4A13700A4B1B680BB101221A7014
:1011400008BD00BF348004407889FF1F84E100E0BF
:1011500000B006400CB00440E289FF1F7989FF1FF0
:101160007489FF1F38B50446094B1B7803F0FF054F
:10117000002BF9D12046012101F0D6F8204629465E
:1011800001F0A4F8034B53F83420034B1A6038BD28
:101190007889FF1F40D60000E489FF1F10B509B110
:1011A00040F08000144A13789842144622D0134A23
:1011B0001268D2041DD503F07F030A2B04D01F2B25
:1011C00005D100220E4B01E00E4B00221A600029CF
:1011D00000F07F020CBF442360230A2A05D01F2A97
:1011E00007D143F44073064A02E0064A43F44073D1
:1011F0001360207010BD00BF6687FF1F348004405D
:1012000000D0044010B004400F4A137898421AD01E
:101210000E490968C90415D5092B04D01A2B05D12C
:1012200000210B4B01E00B4B00211960092805D070
:101230001A2807D140F21331054B02E0054B40F26A
:1012400013311960107070476587FF1F34800440A8
:1012500004D004400CB004400D4A38B5146814F4AE
:1012600000624FF0000410D021280A4D0AD80A4A23
:10127000012152F830302B6001F056F82B681C70B9
:10128000012038BD2C60204638BD104638BD00BF57
:10129000348004407489FF1F40D600000B4B1B684C
:1012A00013F4006310D01728094B09D1094A40F202
:1012B000023111605A7B42F001025A7301207047DB
:1012C0005A7B02F0FE025A730020704734800440BB
:1012D00000B0064008B00440F8B51D4B1B681A0565
:1012E000064633D51B4B1B680BB101221A701A4BF3
:1012F0001C780134282C1F4628BF0024174D2B785A
:10130000A34218D100F032FE40280FDC144A1379B2
:101310001B06F3D52B7813490133282B28BF002354
:10132000C95CDBB2C9B2D1712B70E7E7FF28E5DDFC
:10133000FFF758F9E2E70B4BF6B21E550A4B0122B4
:101340001A70074BE4B2BC223C70DA70F8BD00BFE3
:1013500034800440E489FF1FE889FF1FE389FF1FF1
:1013600000B006407A89FF1F7889FF1F274B1B6852
:101370001A052DE9F04707468A4644D5244B1B68D9
:101380000BB101221A703D4607EB0A039D4237D28A
:10139000DFF890801F4E98F8004096F800900134D6
:1013A000282C28BF00245FFA89F9A1451DD11A4BCA
:1013B000BC22DA7000F0DAFD40280FDC164A1379FF
:1013C0001B060FD5337815490133282B28BF00237E
:1013D000C95CDBB2C9B2D171337003E0FF2801DD13
:1013E000FFF700F933784B45E4D00C4B15F8012B8F
:1013F0001A550B4B0122E4B21A7088F80040C3E77B
:10140000054BBC22DA70BDE8F08700BF3480044091
:10141000E489FF1FE389FF1F00B006407A89FF1FA0
:101420007889FF1FE889FF1F08B5034B1B7813B1AC
:10143000FFF7D8F8F9E708BD7889FF1F064A074B80
:101440001B781078DBB2C0B283422CBF273000F18A
:10145000FF30C01A704700BFE389FF1FE889FF1FF4
:10146000054B1878054B1B78C0B2DBB2984238BFE9
:101470004030C01A704700BFE289FF1F7989FF1F03
:1014800010B5104B10491A780B78D2B2DBB29A42E1
:1014900014D00133402B28BF00230C48DCB2C05CC1
:1014A0000C700B490968C0B251B19A4238BF403242
:1014B000D31A1A2B04DC00230B7010BD4FF0FF3041
:1014C00010BD00BFE289FF1F7989FF1FA289FF1F9E
:1014D0007489FF1F084B1A78084B1B78DBB29A42BD
:1014E00007D00133402B28BF0023054AD05CC0B28F
:1014F00070474FF0FF307047E289FF1F7989FF1F67
:10150000A289FF1F0C4B1B681B0514D50B4BDA7807
:1015100002F0CB02DA7040225A74DA7842F03402D8
:10152000DA70074B1A78074BD2B21A70064B1B6859
:101530000BB100221A7070473480044000B006409E
:101540007989FF1FE289FF1F7489FF1F30B5374B70
:101550001A7912F0300F31D072B69A7D02F0FF0086
:1015600022B9DA7940225A7462B627E062B6304A6C
:10157000304913780978DBB2C9B214462B4AD579C1
:101580005A1C402A28BF00228A42EDB202D02A4BC0
:101590009D541346421E12F0FF00EFD1DAB22270C2
:1015A000264A126852B18B4236BFC1F14001C1EBED
:1015B00003035B18272BC4BF012313701B4BD9787F
:1015C000C9B20C0620D51B7918061DD51C4B1D4A27
:1015D0001D781378EDB2DBB21046AB420CD0134A43
:1015E0000133282B1479184C28BF0023E45CE4B2A3
:1015F000D471127D072AF0D9DBB203700B4B1A7934
:10160000120644BF7C22DA704B060ED5074B1A79BE
:1016100012F0400F194608D00C4B00221A700C4BE8
:101620001B6803B11A703C23CB7030BD00B006407C
:10163000E289FF1F7989FF1FA289FF1F7489FF1F9D
:10164000E889FF1FE389FF1F7A89FF1F7889FF1F41
:10165000E489FF1F174B1A6842F480521A60164A39
:1016600000231370154A1370154A1370154A13702E
:10167000154A1370154A40F2133111604FF451713D
:101680005160134AC0F344311170C0F3471100F0A8
:101690001F0051709072937013742C23D3700D4BF4
:1016A00040226FF44B711A700B444FF400321A60F1
:1016B000704700BF348004405A8AFF1FF189FF1F22
:1016C000608AFF1F5B8AFF1FF089FF1F08C004406C
:1016D00000C0064031E400E0134A937800F00301B3
:1016E00003F0EC030B43410748BF43F01003937032
:1016F00000F00F03042B0C4903D18B7943F0400316
:101700008B715379C20603F0EF03074A48BF43F0D9
:10171000100353719379810603F0EF0348BF43F040
:1017200010039371704700BF00C0064008B5114B0D
:101730001B68DB0400D408BD0F4B1A7802F0FF03CE
:1017400012B1FEF74FFFF7E70C4A4FF4003111607A
:101750000B4A0C49D37040F203120A604A600A4AED
:1017600013700A4A13700A4B1B680BB101221A70DE
:1017700008BD00BF34800440F089FF1F84E100E011
:1017800000C0064008C004405A8AFF1FF189FF1FAD
:10179000EC89FF1F38B50446094B1B7803F0FF05A1
:1017A000002BF9D12046012100F0BEFD204629463C
:1017B00000F08CFD034B53F83420034B1A6038BD06
:1017C000F089FF1F40D600005C8AFF1F10B509B1E9
:1017D00040F080000E4A1378984217D00D4C2468D0
:1017E000E40412D503F07F03082B02D10A4B002436
:1017F0001C60002900F07F030CBF44216021082BEE
:1018000003D1054B41F440711960107010BD00BF49
:101810006787FF1F348004400CC004407047FFFFFF
:101820000D4A38B5146814F480524FF0000410D0FB
:1018300021280A4D0AD80A4A012152F830302B607B
:1018400000F072FD2B681C70012038BD2C60204612
:1018500038BD104638BD00BF34800440EC89FF1FFE
:1018600040D600000B4B1B6813F4805310D00E2899
:10187000094B09D1094A40F2023111605A7B42F00A
:1018800001025A73012070475A7B02F0FE025A731C
:10189000002070473480044000C0064004C004406B
:1018A000F8B51D4B1B68DA04064633D51B4B1B6885
:1018B0000BB101221A701A4B1C780134282C1F46D8
:1018C00028BF0024174D2B78A34218D100F04EFBFF
:1018D00040280FDC144A13791B06F3D52B781349E3
:1018E0000133282B28BF0023C95CDBB2C9B2D171F8
:1018F0002B70E7E7FF28E5DDFEF774FEE2E70B4B10
:10190000F6B21E550A4B01221A70074BE4B2AC2204
:101910003C70DA70F8BD00BF348004405C8AFF1F61
:10192000608AFF1F5B8AFF1F00C00640F289FF1F0D
:10193000F089FF1F38B504464518AC4204D014F8AE
:10194000010BFFF7ADFFF8E738BDFFFF08B5034B0C
:101950001B7813B1FEF746FEF9E708BDF089FF1FBB
:10196000064A074B1B781078DBB2C0B283422CBF0B
:10197000273000F1FF30C01A704700BF5B8AFF1F9D
:10198000608AFF1F054B1878054B1B78C0B2DBB28D
:10199000984238BF4030C01A704700BF5A8AFF1FB4
:1019A000F189FF1F10B5104B10491A780B78D2B28D
:1019B000DBB29A4214D00133402B28BF00230C48DD
:1019C000DCB2C05C0C700B490968C0B251B19A42DC
:1019D00038BF4032D31A1A2B04DC00230B7010BD21
:1019E0004FF0FF3010BD00BF5A8AFF1FF189FF1F63
:1019F0001A8AFF1FEC89FF1F084B1A78084B1B78C7
:101A0000DBB29A4207D00133402B28BF0023054A9E
:101A1000D05CC0B270474FF0FF3070475A8AFF1F4A
:101A2000F189FF1F1A8AFF1F054B1A78054BD2B2A6
:101A30001A70054B1B680BB100221A70704700BF6B
:101A4000F189FF1F5A8AFF1FEC89FF1F10B5294B30
:101A50001A79920620D5284AD87913782749013374
:101A6000402B097828BF00238B42C0B203D0244901
:101A7000C854D9B21170234A116869B1224A127848
:101A8000D2B2934236BFC2F14002C2EB03039B18AD
:101A9000272BC4BF01230B70164AD178C9B20C069C
:101AA00016D51379180613D5184B17481C780378E8
:101AB000DBB29C4202D16C23D37009E00133282BA6
:101AC00028BF0023124CE45CDBB2E4B2D471037093
:101AD0004B060ED5074B1A7912F0400F194608D065
:101AE0000C4B00221A700C4B1B6803B11A702C238C
:101AF000CB7010BD00C006405A8AFF1FF189FF1F3E
:101B00001A8AFF1FEC89FF1F5B8AFF1F608AFF1F75
:101B1000F289FF1FF089FF1F5C8AFF1F00F060B889
:101B200000F01CB800F040B800F0F4B800F066B85F
:101B3000084600F0E3B80846114600F077B8704751
:101B4000044B00221A714FF47A711A73024A996099
:101B50001A607047648AFF1F20D6000010B5104C31
:101B600023686BB120684288531C0244147A0288AF
:101B7000934212D301F0C2F8094B00221A600DE023
:101B8000084B1B7813B94FF0FF3010BD032000F055
:101B9000AFFC20600028E5D1F5E74380204610BD6A
:101BA000808AFF1FF38BFF1F10B50B4C236813B106
:101BB00023686BB902E0094B1B7813B94FF0FF3073
:101BC00010BD032000F094FC20600028F0D1F5E760
:101BD0005A881344187A10BD808AFF1FF38BFF1FA9
:101BE000044B9888044B1B681BB11A885B88D31A76
:101BF000184470476C90FF1F808AFF1F10B5094B77
:101C00001B786BB1084C206818B101F077F80023FD
:101C10002360032000F06CFC10B101F06FF8F8E7CE
:101C200010BD00BFF38BFF1F808AFF1F2DE9F84313
:101C30002D4E012307460C463370002C4FD02B4D00
:101C40002B68A9462BBB48F60148294B1B7803F0AB
:101C5000FF020BB9327015E0042000F065FC072884
:101C600008D80123337001F02BF8C9F8000080B9BF
:101C70001D4B1870B8F101081E4B01D01A782AB11B
:101C800001221A704FF0FF30BDE8F883FEF7AAFC7E
:101C9000DBE72968174A488800231370C0F1400227
:101CA000944238BF224600F1080C10448C4448800E
:101CB000A41A934204D0F85C0CF803000133F8E74F
:101CC0001F444B883F2B06D940230B80042000F093
:101CD00079FC00232B60084B05221A70ADE73470A5
:101CE0002046BDE8F88300BF758AFF1F788AFF1F72
:101CF000F38BFF1F7C8AFF1F748AFF1F07B502AB9F
:101D0000012103F8010D1846FFF790FF03B05DF8BD
:101D100004FBFFFF2DE9F041114B1B78F3B1114E8D
:101D2000114B3468114D01271F7098464CB10027A4
:101D300063882F7004202380214600F043FC376025
:101D400009E000F0BDFF014620B104202C7000F036
:101D500039FC00E02F70002388F80030BDE8F081E6
:101D6000F38BFF1F788AFF1F758AFF1F748AFF1F7E
:101D700038B50E4B1B7803F0FF05ABB90C4C21684E
:101D800031B14B880B80042000F01CFC256038BD6D
:101D900000F096FF014620B10420BDE8384000F075
:101DA00011BC044B01221A7038BD00BF758AFF1F99
:101DB000788AFF1F748AFF1F844641EA000313F0EC
:101DC00003036DD1403A41D351F8043B40F8043B42
:101DD00051F8043B40F8043B51F8043B40F8043B05
:101DE00051F8043B40F8043B51F8043B40F8043BF5
:101DF00051F8043B40F8043B51F8043B40F8043BE5
:101E000051F8043B40F8043B51F8043B40F8043BD4
:101E100051F8043B40F8043B51F8043B40F8043BC4
:101E200051F8043B40F8043B51F8043B40F8043BB4
:101E300051F8043B40F8043B51F8043B40F8043BA4
:101E400051F8043B40F8043B403ABDD2303211D344
:101E500051F8043B40F8043B51F8043B40F8043B84
:101E600051F8043B40F8043B51F8043B40F8043B74
:101E7000103AEDD20C3205D351F8043B40F8043B44
:101E8000043AF9D2043208D0D2071CBF11F8013B42
:101E900000F8013B01D30B8803806046704700BF08
:101EA000082A13D38B078DD010F003038AD0C3F117
:101EB0000403D21ADB071CBF11F8013B00F8013BF9
:101EC00080D331F8023B20F8023B7BE7043AD9D3B8
:101ED000013A11F8013B00F8013BF9D20B7803708D
:101EE0004B7843708B78837060467047024B1A685A
:101EF00001321A60704700BF108BFF1F08B50B4CF2
:101F00002368580301D500F09DFB2368590501D5CE
:101F1000FEF7E2FF23681A0501D5FFF717FB2368D8
:101F2000DB04ECD5FFF792FDE9E700BF3480044005
:101F300008B5FFF7E3FFFFFF014B10221A8070473F
:101F4000002005407047FFFF024A136818441060E4
:101F5000184670476887FF1FFEE70078D0F1010040
:101F600038BF00207047012303707047EFF31383DD
:101F70009BB9EFF3108098B9EFF3058323B10F2BD2
:101F800004D9084A985C01E04FF48070EFF31183A4
:101F90003BB1834238BF184670474FF0FF3070475F
:101FA00018467047F0E300E01F4B10B51C681C603A
:101FB000E00304D51D4B1A680AB11B689847A103BA
:101FC00004D51A4B5A680AB15B689847E20704D5F2
:101FD000164B1A6C0AB11B6C9847A30704D5134B18
:101FE0005A6C0AB15B6C9847200704D50F4B9A6C6A
:101FF0000AB19B6C9847610704D50C4BDA6C0AB1A7
:10200000DB6C9847220304D5084B5A6E0AB15B6E0D
:102010009847630306D5054BD3F8802012B1D3F857
:102020008030984710BD00BFA0A00440888AFF1FE1
:102030002C4B10B51C681C60200704D52A4B5A6A2B
:102040000AB15B6A9847E10604D5274B9A6A0AB140
:102050009B6A9847620604D5234BDA6A0AB1DB6AA9
:102060009847230604D5204B1A6B0AB11B6B98477F
:10207000A00604D51C4B5A6B0AB15B6B9847E1076D
:1020800004D5194BDA6B0AB1DB6B9847A20704D56C
:10209000154B9A6D0AB19B6D9847630704D5124B97
:1020A000DA6D0AB1DB6D9847A00504D50E4BDA6EE8
:1020B0000AB1DB6E9847E10504D50B4B1A6F0AB1E4
:1020C0001B6F9847620504D5074B5A6F0AB15B6FC7
:1020D0009847230504D5044B9A6F0AB19B6F984724
:1020E00010BD00BFA0B00440888AFF1F1E4B10B572
:1020F0001C681C60E00704D51C4B9A680AB19B68F9
:102100009847210604D5194B5A690AB15B6998476B
:10211000E20604D5154B9A690AB19B699847630793
:1021200004D5124BDA690AB1DB699847200704D558
:102130000E4B1A6A0AB11B6A9847A10704D50B4BCC
:102140009A6B0AB19B6B9847A20604D5074B1A6D90
:102150000AB11B6D9847630604D5044B5A6D0AB14A
:102160005B6D984710BD00BFA0C00440888AFF1F68
:10217000114B10B51C681C60E00404D50F4BDA68E5
:102180000AB1DB689847A10404D50C4B1A690AB15F
:102190001B699847A20604D5084B1A6E0AB11B6E3C
:1021A0009847E30606D5054BD3F8842012B1D3F83F
:1021B0008430984710BD00BFA0900440888AFF1F5C
:1021C000094B10B51C681C60A20704D5074B9A6E1A
:1021D0000AB19B6E9847E30704D5044BDA6F0AB146
:1021E000DB6F984710BD00BFA0D00440888AFF1F56
:1021F000212830B531D8042A2FD8DFE802F00709AA
:10220000050B03000B2306E00A2304E0082302E089
:102210000C2300E00923114A114D02EBC00254685F
:10222000104AC2F89C51104DC2F8A0510F4DC2F88F
:10223000A4510F4DC2F8A8510E4DC2F8AC5172B660
:1022400022680D4D22F47022226042F0807242EA30
:10225000034345F82010236062B630BD40D600002D
:10226000712100000082FF1FA91F00003120000023
:10227000ED200000C1210000888AFF1F094B03EBFD
:10228000C0035A6872B6136823F0877323F480334F
:1022900043F080731360044B002243F8202062B6A1
:1022A000704700BF40D60000888AFF1F044B0549D5
:1022B00000221A600A60044A106010221A607047F7
:1022C00014D0034004D0034000D00340212810B5AF
:1022D00018D80D4A52F8303093F880423CB10122B0
:1022E00011B183F8802010BD83F8002110BD02EBEE
:1022F000C00043681A6811B142F0030201E022F005
:1023000002021A6010BD00BF40D60000212806D886
:10231000044B53F8303093F80002C0B270470020ED
:10232000704700BF40D60000212810B537D81C4A9E
:1023300002EBC00301295B68144601D004290FD1C8
:1023400054F83020012082F880024FF4A2721A6003
:102350001A6804290CBF42F0200222F020021DE07E
:1023600052F83020002082F8800211B18A1E012A22
:1023700012D84FF4807202291A6003D11A6842F011
:1023800003020BE003290AD11A6842F002021A6024
:102390001A6822F0010201E040F203121A6010BD37
:1023A00040D6000072B60C4B0C491A680C4B1B68E7
:1023B000096862B6490102D5322A88BF0133C2F5E5
:1023C0008C32482102F23F12B2FBF1F24FF47A70E4
:1023D00000FB0320704700BF18E000E004ED00E0C0
:1023E000108BFF1F38B50446FFF7DCFF054624B904
:1023F00038BD013C0AD005F57A75FFF7D3FF401BC5
:10240000B0F57A7FF5D2FEF7EDF8F6E738BDFFFFBD
:10241000204B4FF4000210B51A604FF080721A6022
:102420004FF000721A604FF080621A604FF0006245
:102430001A60194B194A1A4C002048F6FF711860AF
:102440005960282313609360136193611362936250
:10245000136393630922226004F5805404342060DE
:102460006160A360236144F8042C04F5FE2420601D
:102470000C4801600C490B608B600C4B1A6000F03B
:10248000D1FC4FF4C870FFF7ADFFBDE8104000F07D
:10249000D7BB00BF08E100E0048003400C8003408C
:1024A0000080034008800B400C800B4000800B40F4
:1024B000F0B50C4B0C4C1A7842F0020504EBC50643
:1024C00082F00102706009481A700678002E0CBF75
:1024D0008827C82786F0010647EA0141067044F8BC
:1024E0003510F0BD7C8BFF1F0080FF1FF48BFF1F9A
:1024F000431E032B10B510D872B6094A52F82300B8
:1025000048B1416842F82310064A018832F8134066
:10251000611A22F8131062B610BD002010BD00BF72
:102520006C8BFF1F6C90FF1F013803280AD872B60E
:10253000054B53F82030002013B101305B68FBE7F6
:1025400062B6704700207047C08BFF1F10B572B68F
:102550000123174A1A4412F8012C12071CD59900BE
:10256000144A52F831402CB902EB4313083058603A
:10257000114B09E041F0010152F8314064B902EB1E
:10258000C103083058600D4B42F831300C4B1A78BB
:10259000013A1A7062B610BD0133052BD9D162B66B
:1025A000074B00221A70BDE8104000F0A7BB00BF27
:1025B00067D700000080FF1F88004000C80040006F
:1025C000EA8BFF1F431E032B30B532D8194A400156
:1025D00040F01000104472B6174CE25C032A09D890
:1025E000DFE802F0160218050830022213E0083076
:1025F000042210E01148124A50F8234014B940F860
:10260000231002E052F82300416042F823100FE04B
:10261000032200E00522E25410F0080F01F1080344
:102620000A8843600CBF8823C82343EA024303603F
:1026300062B630BD0080FF1F288BFF1FC08BFF1FBD
:10264000D08BFF1F2DE9F84FAB4F3C78E4B214F06C
:10265000040F3D4619D0A94B1B78A3B1A84A1178A5
:1026600001F0FF0321B1013BDBB2137003B900BEDF
:10267000A44A117801F0FF0329B1013BDBB21370CA
:102680000BB9FFF775FB04233B7004F0080303F05C
:10269000FF02002B00F067829B4B9C4C1A78D2B251
:1026A00015094FEA920840F0E48104EBC803596829
:1026B00054F83830C3F38303013B0C2B00F2D6816E
:1026C000DFE813F095019501D401D401D401D401C0
:1026D000D401D401B001D401D401D4010D008C4D3A
:1026E0000A684B688B486B6001218B4B44F838308B
:1026F0002A60DFF85082017092B240F281600023BC
:102700008242C8F800302361A36117D8B2F5D06FB8
:1027100080F01E81B2F5817F00F0CF8006D8802A3C
:1027200000F0BA80822A00F0BB8031E140F202332F
:102730009A4200F0D180B2F5A06F1CE042F2210075
:10274000824200F051810ED8B2F5086F00F09E80F1
:10275000B2F5106F40F01C81684B6C4EAA781A706D
:1027600006F180090AE042F221218A4200F0088144
:1027700042F221339A4200F00F8109E1336A1B06CD
:1027800003D5706A083800F0B9FA08364E45F5D11D
:102790000026B146DFF8B0A156F80A0028B1D0F8FB
:1027A00004B000F0ABFA5846F8E74AF806005B4B75
:1027B000DFF898A1F05056F80A0028B1D0F804B01C
:1027C00000F09CFA5846F8E7554B4AF80600F050DE
:1027D000544B23F81900544B19F80320023A032AEA
:1027E00008D8DFE802F002040204002200E001221F
:1027F00003F8092009F10109B9F1040F06F10406F3
:10280000C8D14A4B00221A7001269A46484A494BC1
:102810003244334412F8012C9B0012F0080F1A7056
:102820004FEA860925D000F04BFA38B104EB461385
:1028300008305860404B44F8393006E09AF80030D0
:1028400044F8390001338AF8003000F039FA49F0D1
:10285000010338B104EBC302083050602E4A44F83B
:10286000332006E044F833009AF8003001338AF848
:10287000003049F00202013649F003090023052E19
:1028800044F8323044F83930C0D186E01B4B2B4C31
:102890001B7823700B4683E0284C237063707EE026
:1028A000AA88042A74D8254C920023706370244BA4
:1028B0009B5C9E0773D5217071E0AA8802F07F02AD
:1028C000042A65DC6B88002B62D191001C4A0A4403
:1028D000117821F0020159E0AA8802F07F02042A4F
:1028E00056DC6B88002B53D19100154A0A441178AD
:1028F00041F002014AE000BF80200740F38BFF1F38
:102900007D8BFF1F748AFF1F902007400080FF1FF0
:10291000E08BFF1FF48BFF1FC8004000188BFF1FC8
:10292000D08BFF1F6C90FF1F288BFF1FEA8BFF1FB0
:1029300067D7000030C8011088004000EB8BFF1FF4
:10294000C0200740148BFF1F6C8BFF1FC08BFF1F25
:102950006A88A9889F4B53F8084CA3F10C00BCB1BE
:1029600033F80C6C964209D133F80A6C8E4205D1CB
:10297000120A032A0CBF2378038911E00C33EAE71B
:10298000954A1168954A1160A978954A117004E03A
:10299000944B0F221A7027E000231C4600E002230C
:1029A000EE88B34238BF1E46402E34BF3546402520
:1029B00020462946FFF77CFD761B2C4403D1402D91
:1029C00012D1354603E0402E34BF3546402520461F
:1029D0002946FFF76DFD761B2C4401D1402D03D114
:1029E000814AC8F8004016800122804B3DE0804BB0
:1029F0001A8842F221039A4210D100237D4AC85C12
:102A000098540133072BF9D11368862B02D17A4BE6
:102A10000F221A7000200146FFF74AFD774B44F859
:102A2000383023E0764E3568B5B1DFF8BC81B8F8B0
:102A30000090B9F1400F34BF4C464024284621464F
:102A4000FFF736FDC4EB09039BB2A8F800300BB9C1
:102A5000402C00D12B193360654B1A88B2F5A06F5A
:102A600004D100225A709A78664B1A7001225F4B8B
:102A70006CE004EBC806013D736802F00802A3F1A4
:102A80000800EDB202F0FF01002A36D000F036F95E
:102A90005D485E4B50F82520EAB1516840F825109A
:102AA00002F108017160595D03290BD8DFE801F0DC
:102AB00002040608032104E0022102E0052100E0EF
:102AC0000421595516F0080F12880CBF8823C8231B
:102AD00043EA024342E05A5D032A07D8DFE802F0E6
:102AE00040400204002206E0012204E016F0080F34
:102AF0000CBF022203225A5532E054F83820120C3F
:102B000023F8082C22B3DFF834E123F8061C43F83D
:102B1000041C5EF825303E4913B94EF8250002E04A
:102B200051F8253058603B4B41F8250033F815101B
:102B30000A4423F8152000F0C3F810B10830706083
:102B400006E0354B44F838001A7801321A7007E075
:102B50002A4B324A16F0080F08BF134644F83830A3
:102B600008233B7070E5E0071FD520492B482C4C0B
:102B700002230B702B4B1A702B4B186098602B485C
:102B8000D8601A619A615C60164B0D201870284855
:102B9000FF2303702B700274264A1370264B9F226A
:102BA0001A7001230B70BDE8F88F210604D50D4B78
:102BB0000D221A7080232B70A20705D51C4B1A78A2
:102BC000D2B21A7002232B70E30644BF10232B707D
:102BD000BDE8F88F78D70000108BFF1F6890FF1FAB
:102BE000848AFF1FC0200740E88BFF1F9420074006
:102BF000E08BFF1F6090FF1F7D8BFF1FC800400010
:102C0000148BFF1F98200740C08BFF1F288BFF1FCE
:102C1000188BFF1F6C90FF1FEA8BFF1F880040007E
:102C20002C8BFF1F7C8BFF1F0080FF1F808BFF1FE3
:102C3000882007408C200740842007406C8BFF1FB2
:102C400008B500F0E5F900221A4B0021D150981880
:102C50000832882A4160F7D1174A106840F4802072
:102C6000106002F528326832C3F307201070C3F3F6
:102C700007401B0E10751376FF2302F81C3C02F868
:102C8000143C02F88C3C012302F8083C82F86410E2
:102C900002F8183C094B70226FF450711A700B4403
:102CA0004FF400721A6003F1C04303F5C8231022E9
:102CB0001A7008BD0080FF1F3480044049E400E022
:102CC00072B60C4A1168B1FA81F30B2B02D962B6C5
:102CD000002070474FF00040D84021EA0001116009
:102CE00062B6054948225343C8180022CA504260C0
:102CF000704700BF6C87FF1F0084FF1F0C4B4822EA
:102D0000C31AB3FBF2F30B2B11D80A4A127822B183
:102D1000094A12780AB1FFF719BC72B6074A4FF098
:102D2000004121FA03F311681943116062B670473C
:102D30000084FF1FEA8BFF1FF38BFF1F6C87FF1FB1
:102D4000F0B5304B1B681B06FBD42F4B1B6813F0F0
:102D50008002F6D172B62D4B1978002950D02C493B
:102D600008684F688E68CD680C6938441431304467
:102D70000968284420440844C0F34E00254940F423
:102D800000400860C86A0F6B4E6B8D6BCC6B38448B
:102D9000403130440968284420440844C0F34E00C0
:102DA0001D4940F40040086001F10811143151F848
:102DB000140C51F8107C51F80C6C51F8085C51F867
:102DC000044C096838443044284420440844C0F383
:102DD0004E00124940F400400860C86A0F6B4E6B09
:102DE0008D6BCC6B38444031304409682844204412
:102DF0000844C0F34E000A4940F4004008601A70CD
:102E000062B6F0BD24B0034024B00B40F68BFF1F28
:102E100038B003402CB0034030B003402CB00B401E
:102E200030B00B4010B5204B2048214960221A7069
:102E3000E1225A701F4B204A1C78204B082C01D1EC
:102E4000012402E00A2C03D119240460132005E0B8
:102E50000C2C0CBF15243D24046012200860146063
:102E60001860174B17491B78174A03B101230B60F1
:102E70001360164B164A1978164B012901D8802188
:102E80000BE0042901D8842107E0082901D8852115
:102E900003E0102994BF86218721116019600E4B31
:102EA00001221A7010BD00BF0040074008B0034067
:102EB0000CB003407087FF1F08B00B400CB00B40F4
:102EC000F98BFF1F20B0034020B00B407187FF1F1C
:102ED00024B0034024B00B40F68BFF1F0C2804D90C
:102EE000102828BF1020102307E00A2804D809283A
:102EF00034BF08230A2300E00C23094AD9B2081A78
:102F00001070084A1078834208D0074B11701B7864
:102F100013B1064B00221A60FFF784BF704700BF51
:102F2000F58BFF1F7087FF1FF68BFF1F24B0034038
:102F30000D2838B50FD9172801D80E380AE0A0F1AE
:102F40001A03052B01D8093804E0A0F12203062B4F
:102F500047D81838C0B2244B1C5C244B1B780BB1EB
:102F6000FFF7EEFE210614D472B6214B214D1C60F2
:102F700001232B7062B672B61D4B1B681A0601D571
:102F80001D4B1FE02B78002BEFD062B6FDF72AFB1C
:102F9000F1E772B6194B1A4D1A6814F0400F14BFBE
:102FA00022F0100242F010021A60164B04F03F02A9
:102FB0001A6001232B7062B672B6124B1B681B0697
:102FC00008D5114B186800232B7062B60F4B1B7885
:102FD000184138BD2B78002BDCD062B6FDF702FB20
:102FE000EAE7002038BD00BF50D70000F68BFF1F76
:102FF00000B00340F88BFF1F10B003400CB00B4033
:10300000F78BFF1F00B00B4010B00B40F58BFF1F7C
:103010001FB572B6154B70221A70154A41211170F6
:103020000F2102F8011C80221A701A781206FCD5B2
:10303000104B186862B6104B984298BF0A2301AC37
:1030400098BF584321460A2200F01AF80023E15C99
:103050000A4A29B102EB430001330A2B4180F6D121
:1030600001335B00137004B010BD00BF00000240CC
:1030700007000240080002407F969800FA87FF1F71
:1030800010B50023B0FBF2F402FB1400092894BF32
:1030900030303730C0B2C85420460CB10133F1E7AC
:1030A000CA18547022469A4206DA885CCC5C8C546A
:1030B000C8540132013BF6E7084610BD2DE9F74F31
:1030C0008B469246114698466A4601AB08F06BFB68
:1030D000009E8146BAF1000F0BD156B990F80090CE
:1030E0003A4B3B4A0125B9F1340F8CBF91469946C2
:1030F00008E0484608F09AFCB0420546C8BF451CA7
:1031000006B90135019A02B10135C5EB0B04002C5B
:1031100008EB050708DD274443464444A34204D096
:10312000202103F8011BF9E7444612B12D23237037
:103130000134002E07D1BAF1000F1ED023463022F1
:1031400003F8022B27E018DABAF1000F15D0234656
:10315000302203F8022B2E226270013732469C1B6C
:10316000002AC6F10001144404DA194430208854BE
:103170000132F4E7009200E01C46BC420FD2631C0F
:1031800019F8012B2270BB4208D0009A013A009234
:10319000002AF1D1A31C2E226270EDE73C46BBF160
:1031A000000F0DDA5D446D4223466219D21A002ADF
:1031B00003DD202203F8012BF7E7002DA8BF6419D7
:1031C00000234046237003B0BDE8F08FA7DC000069
:1031D000C0D7000080F0004002E000BF81F0004155
:1031E00042001FBF5FEA410392EA030F7FEA226CAD
:1031F0007FEA236C6AD04FEA1262D2EB1363C1BF3D
:10320000D218414048404140B8BF5B42192B88BFAB
:10321000704710F0004F40F4000020F07F4018BFCE
:10322000404211F0004F41F4000121F07F4118BFEE
:10323000494292EA030F3FD0A2F1010241FA03FC96
:1032400010EB0C00C3F1200301FA03F100F000437E
:1032500002D5494260EB4000B0F5000F13D3B0F146
:10326000807F06D340084FEA310102F10102FE2AB5
:1032700051D2B1F1004F40EBC25008BF20F0010025
:1032800040EA03007047490040EB000010F4000FD3
:10329000A2F10102EDD1B0FA80FCACF1080CB2EB66
:1032A0000C0200FA0CF0AABF00EBC25052421843C5
:1032B000BCBFD0401843704792F0000F81F400016A
:1032C00006BF80F400000132013BB5E74FEA41033D
:1032D0007FEA226C18BF7FEA236C21D092EA030FA9
:1032E00004D092F0000F08BF0846704790EA010F23
:1032F0001CBF0020704712F07F4F04D1400028BF50
:1033000040F00040704712F100723CBF00F5000031
:10331000704700F0004343F0FE4040F40000704767
:103320007FEA226216BF08467FEA23630146420213
:1033300006BF5FEA412390EA010F40F48000704726
:103340004FF0000304E000BF10F0004348BF4042CC
:103350005FEA000C08BF704743F0964301464FF008
:1033600000001CE050EA010208BF70474FF0000364
:103370000AE000BF50EA010208BF704711F00043A5
:1033800002D5404261EB41015FEA010C02BF844675
:103390000146002043F0B64308BFA3F18053A3F5D4
:1033A0000003BCFA8CF2083AA3EBC25310DB01FA1B
:1033B00002FC634400FA02FCC2F12002BCF1004F9F
:1033C00020FA02F243EB020008BF20F00100704730
:1033D00002F1200201FA02FCC2F1200250EA4C0084
:1033E00021FA02F243EB020008BF20EADC707047CA
:1033F0004FF0FF0C1CEAD0521EBF1CEAD15392EAD8
:103400000C0F93EA0C0F6FD01A4480EA010C4002B3
:1034100018BF5FEA41211ED04FF0006343EA50100D
:1034200043EA5111A0FB01310CF00040B1F5000F4F
:103430003EBF490041EAD3715B0040EA010062F1FE
:103440007F02FD2A1DD8B3F1004F40EBC25008BFE8
:1034500020F00100704790F0000F0CF0004C08BF06
:1034600049024CEA502040EA51207F3AC2BFD2F1D3
:10347000FF0340EAC250704740F400004FF00003E1
:10348000013A5DDC12F1190FDCBF00F0004070471B
:10349000C2F10002410021FA02F1C2F1200200FA59
:1034A00002FC5FEA310040F1000053EA4C0308BF20
:1034B00020EADC70704792F0000F00F0004C02BF71
:1034C000400010F4000F013AF9D040EA0C0093F0EC
:1034D000000F01F0004C02BF490011F4000F013B46
:1034E000F9D041EA0C018FE70CEAD15392EA0C0FB4
:1034F00018BF93EA0C0F0AD030F0004C18BF31F01F
:10350000004CD8D180EA010000F00040704790F0F4
:10351000000F17BF90F0004F084691F0000F91F098
:10352000004F14D092EA0C0F01D142020FD193EA5E
:103530000C0F03D14B0218BF084608D180EA0100E6
:1035400000F0004040F0FE4040F40000704740F0C2
:10355000FE4040F4400070474FF0FF0C1CEAD05290
:103560001EBF1CEAD15392EA0C0F93EA0C0F69D0EC
:10357000A2EB030280EA010C49024FEA402037D057
:103580004FF0805343EA111143EA10130CF000404E
:103590008B4238BF5B0042F17D024FF4000C8B423E
:1035A00024BF5B1A40EA0C00B3EB510F24BFA3EB1E
:1035B000510340EA5C00B3EB910F24BFA3EB9103EE
:1035C00040EA9C00B3EBD10F24BFA3EBD10340EA48
:1035D000DC001B0118BF5FEA1C1CE0D1FD2A3FF68E
:1035E00050AF8B4240EBC25008BF20F00100704743
:1035F0000CF0004C4CEA50207F32C2BFD2F1FF03E6
:1036000040EAC250704740F400004FF00003013A16
:1036100037E792F0000F00F0004C02BF400010F4BA
:10362000000F013AF9D040EA0C0093F0000F01F0CE
:10363000004C02BF490011F4000F013BF9D041EAF0
:103640000C0195E70CEAD15392EA0C0F08D1420223
:103650007FF47DAF93EA0C0F7FF470AF084676E7F6
:1036600093EA0C0F04D14B023FF44CAF08466EE7CF
:1036700030F0004C18BF31F0004CCAD130F000429D
:103680007FF45CAF31F000437FF43CAF5FE700BFF5
:103690004FF0FF3C06E000BF4FF0010C02E000BF1E
:1036A0004FF0010C4DF804CD4FEA40024FEA4103C0
:1036B0007FEA226C18BF7FEA236C11D001B052EA76
:1036C000530C18BF90EA010F58BFB2EB030088BF3C
:1036D000C81738BF6FEAE17018BF40F001007047AB
:1036E0007FEA226C02D15FEA402C05D17FEA236C8D
:1036F000E4D15FEA412CE1D05DF8040B704700BFD4
:10370000844608466146FFE70FB5FFF7C9FF00286A
:1037100048BF10F1000F0FBD4DF808EDFFF7F4FFA3
:103720000CBF012000205DF808FB00BF4DF808ED3C
:10373000FFF7EAFF34BF012000205DF808FB00BF5F
:103740004DF808EDFFF7E0FF94BF012000205DF881
:1037500008FB00BF4DF808EDFFF7D2FF94BF012032
:1037600000205DF808FB00BF4DF808EDFFF7C8FF2B
:1037700034BF012000205DF808FB00BF044A41600F
:1037800082B012680192019A026002B0704700BFD5
:10379000108BFF1F074B02681B6882B00193019BCF
:1037A000991A42689142CABF03600020012002B00A
:1037B000704700BF108BFF1F044B416082B01B6835
:1037C0000193019B036002B0704700BF108BFF1F85
:1037D00040687047034B82B01B680193019B0360F4
:1037E00002B07047108BFF1F10B50446D0F82403B9
:1037F00008F01AF8204610BD0023C218013300213A
:10380000B3F5807F1176F8D1704710B54FF47A7117
:103810000446FFF7B3FF04F108004FF47A71FFF795
:10382000ADFF40F6B83104F11000FFF7A7FF04F533
:103830008C7000F04DFE0023C4F81C33C4F8203314
:10384000C4F8243301210D20FEF76EFD2046FFF75A
:10385000D3FF204610BD08B5FFF79CFF58B10D20DF
:10386000FEF754FDD0F1010138BF00210D20BDE865
:103870000840FEF72BBD08BD10B50A4C2368DB07D6
:103880000ED42046FEF769FB50B10748FFF7BDFF95
:103890002046FEF768FB04480449054A05F065FD2B
:1038A000014810BD248FFF1FFC8BFF1FE93700006C
:1038B0006087FF1F70B59EB001238DF8053073231C
:1038C0008DF8043000238DF8082004460D46ADF82D
:1038D00006301A4601AB1344013200266E2A5E718F
:1038E000F8D1284608F0A2F86D28024610D904F550
:1038F0008C7401A92046732200F0F0FD01A9ADF8F7
:1039000006009DF80420204600F02CFE1EB070BD7D
:1039100033469342EBD001A91944E85C4871013366
:10392000F7E70022FFF7C6BF0222FFF7C3BF70B55B
:10393000D0F81C630446B6B10025D4F8243353F8FC
:10394000250010B103685B6898470135B542F4D192
:103950000025C4F81C53C4F82053D4F8240307F0FE
:1039600063FFC4F8245370BD012910B5044680F8E4
:1039700018130AD004290ED14FF47A71FFF71CFFF7
:103980002046BDE81040FFF7D2BF1030FFF722FFFE
:103990002046322101E04FF47A71BDE81040FFF774
:1039A0000BBF37B50D4609790446FFF7DDFF02234B
:1039B0008DF801300023ADF8023004F58C742B79BA
:1039C0008DF8043006226423694620468DF80020D5
:1039D0008DF8053000F082FD6946ADF802009DF8D3
:1039E0000020204600F0BEFD03B030BDF8B590E8E1
:1039F00028009D4204460F4610D10DB1680000E03A
:103A000001206060800007F007FFA168AA00064659
:103A1000FEF7D2F9A06807F007FFA6602368A16847
:103A20005A1C22603A6841F82320F8BD2DE9F04F76
:103A30000C4697B099490546FFF773FFA379082B09
:103A400000F29F82DFE813F009007C00CE015E00E7
:103A50004A002F001C006C027F0228469049FFF7A5
:103A600060FF00231C20159395F81C7300F05CFB8D
:103A7000394605F58C72E379064602F0C7FD74E21B
:103A800028468849FFF74DFF00231820159395F825
:103A90001C7300F049FB394605F58C72E379064644
:103AA00000F086FE61E228467F49FFF73AFF0023D7
:103AB0003C20159395F81C7300F036FBA268009229
:103AC000E26801922269029262690392E3793946BF
:103AD00005F58C72064600F08BFF46E228467349D6
:103AE000FFF71FFF0023F020159395F81C7300F0DB
:103AF0001BFB394605F58C72D4F80730064600F0FA
:103B0000F7FD32E228466A49FFF70BFF00234FF426
:103B10008270159395F81C7300F006FB627A009290
:103B2000A27A01923946B4F8073005F58C72064640
:103B300002F0E0FC28465F491596FFF7F2FE4CE1E3
:103B400028465D49FFF7EDFE94F80B804FF0000B1F
:103B5000CDF854B0B8F1000F00F0B280B8F1010F09
:103B600040F03B8155492846FFF7DBFE1C2000F062
:103B7000DBFA64276FF06303E17994F916208DE88E
:103B800088004FF49673804600F08CFE142000F0FD
:103B9000CBFA94F85010D4F85720D4F85B3006468E
:103BA00001F066FD1C2000F0BFFAA189A26933462E
:103BB000824601F053FE182000F0B6FA3346E2695F
:103BC000E189814601F0D2FD902000F0ADFA074670
:103BD000206A00F011FC0246606A1192109100F018
:103BE0000BFCCDE90001A06A00F006FCCDE9020162
:103BF000E06A00F001FCCDE90401D4F8530000F0C4
:103C0000FBFBCDE90601206B00F0F6FBCDE90801D6
:103C1000216CD4F85F000A9100F0EEFBCDE90C01B5
:103C2000B4F851100E91119A109B384601F09CF98E
:103C3000182000F079FA52464B464146009701960B
:103C4000129002F0D7FA95F81C131191902000F011
:103C50006BFA129B0393236B0593636B0693A36B21
:103C60000793E36B0893637A0993A37A0A93238AF1
:103C70000B93237A0C93636C0D93A36C0E931390A8
:103C8000CDF800A0CDF8049002970496CDF83CB092
:103C9000119905F58C7243469BE000BFC2D7000026
:103CA000C8D70000E2D70000F1D70000FBD7000022
:103CB00003D800000BD800001AD800002AD8000052
:103CC0001C2000F031FAB4F94C300093B4F94E30B6
:103CD000E17994F9162001934FF4FA73814600F0CC
:103CE000E1FD242000F020FA94F9177094F85010A8
:103CF00094F85120638A0097064601F033FC1C209B
:103D000000F012FAA189A2693346834601F0A6FDAC
:103D1000182000F009FA3346E269E189824601F091
:103D200025FD702000F000FA0746206A00F064FBD1
:103D30000246606A1192109100F05EFBCDE900012D
:103D4000A06A00F059FBCDE90201E06A00F054FBE3
:103D5000CDE90401206B00F04FFBCDE90601216C99
:103D60000891119A109B384600F04EFF142000F085
:103D7000DBF95A46534649460097129001F08CFEF3
:103D800095F81C131191902000F0CEF9129B03932B
:103D9000236B0593636B0693A36B0793E36B089305
:103DA000637A0993A37A0A93238A0B93237A0C9359
:103DB000636C0D931199A36C0E931390CDF800B022
:103DC000CDF804A002970496CDF83C8005F58C72DE
:103DD0004B4601F045FF139A1592159B002B40F0BE
:103DE000C680CAE068492846FFF79BFD4FF0000BEC
:103DF0001C20CDF854B000F097F996266FF095038B
:103E0000E17994F912208DE848004FF4FA73804666
:103E100000F048FD242000F087F994F91370A17A8E
:103E2000E27A238A0097064601F09CFB1C2000F0F2
:103E30007BF9A189E2693346824601F00FFD182023
:103E400000F072F9226AE1893346814601F08EFC66
:103E5000702000F069F9D4F814C0CDF844C00746CA
:103E600061464A48FFF778FB00F0C6FADDF844C027
:103E700002460B4600200021CDE90001CDE90201F8
:103E8000CDE9040160461192109300F0B5FACDE936
:103E900006014FF07E510891119A109B384600F0B0
:103EA000B3FE142000F040F952464B4641460097BD
:103EB000129001F0F1FD95F81C131191902000F083
:103EC00033F9129B039363690593A3690693002357
:103ED00007930893237A0993637A0A934FF47A73CA
:103EE0000B934FF082430D934FF041430E93012308
:103EF0000F931199CDF800A0CDF804900297049685
:103F0000CDF830B005F58C724346119001F0A8FE53
:103F1000DDF844C0CDF854C0BCF1000F27D12CE02F
:103F200028461B49FFF7FDFC00231820159395F840
:103F30001C7300F0F9F8394605F58C72E3790646F2
:103F400002F0C4FB11E013492846FFF7EAFC002306
:103F50001020159395F81C7300F0E6F8394605F526
:103F60008C72E379064601F0ABFC15962EB105F58F
:103F7000477015A9FFF73AFD03E028460649FFF709
:103F8000D3FC17B0BDE8F08F38D800000000FA432A
:103F90004CD8000057D80000D0D7000038B54B7976
:103FA00005460C46102B1FD8DFE803F0091E0D1E36
:103FB000151E151E1E151E1E1E151E151500BDE80C
:103FC0003840FFF733BDD0F824330A7953F8220084
:103FD00003681B699847D5F82433227953F82200E7
:103FE000036821461B69984738BDFFFFF0B50446BA
:103FF0009FB004F58C7604F11805FFF72CFC3046D1
:1040000029464FF4807200F09AFA60B30023678B60
:10401000227EA376E3763046294600F05FFAB84266
:104020001AD194F81833012B637E0ED1022B0ED0D7
:10403000032B05D0A3B920462946FFF7AFFF0FE0B9
:1040400004F11000FFF7C6FB0AE0022B08D120465E
:104050002946FFF7A6FC03E020463149FFF764FC40
:104060002046FFF7C9FB94F81833012B55D104F112
:104070000800FFF78FFBB0B1032305228DF809304C
:1040800002A9002330468DF80820ADF80A308DF8DB
:104090000C3000F023FA02A9ADF80A009DF80820C0
:1040A000304600F05FFA04F11000FFF773FB18B11F
:1040B00020460421FFF758FCD4F81C630025B542C4
:1040C0002BD0D4F8243353F8250003685B69984754
:1040D000D4F8243353F8250003689B689847D4F834
:1040E000243353F8250000F069FAA0B100216E22B4
:1040F00002A8FCF755FAD4F8243353F825000368D6
:1041000002A90DF10702DB689847204602A99DF835
:104110000720FFF7CFFB0135D1E71FB0F0BD00BF8F
:1041200061D80000FCF7BAB907F076BB07F07CBB9A
:1041300081F0004102E000BF83F0004330B54FEA58
:1041400041044FEA430594EA050F08BF90EA020FC5
:104150001FBF54EA000C55EA020C7FEA645C7FEA58
:10416000655C00F0E2804FEA5454D4EB5555B8BF7B
:104170006D420CDD2C4480EA020281EA030382EAEC
:10418000000083EA010180EA020281EA0303362D7E
:1041900088BF30BD11F0004F4FEA01314FF4801C51
:1041A0004CEA113102D0404261EB410113F0004F63
:1041B0004FEA03334CEA133302D0524263EB43031A
:1041C00094EA050F00F0A780A4F10104D5F1200EB8
:1041D0000DDB02FA0EFC22FA05F2801841F1000113
:1041E00003FA0EF2801843FA05F359410EE0A5F1E7
:1041F00020050EF1200E012A03FA0EFC28BF4CF018
:10420000020C43FA05F3C01851EBE37101F00045CD
:1042100007D54FF0000EDCF1000C7EEB00006EEBDA
:104220000101B1F5801F1BD3B1F5001F0CD3490864
:104230005FEA30004FEA3C0C04F101044FEA4452BB
:1042400012F5800F80F09A80BCF1004F08BF5FEA42
:10425000500C50F1000041EB045141EA050130BD22
:104260005FEA4C0C404141EB010111F4801FA4F1C5
:104270000104E9D191F0000F04BF01460020B1FA1A
:1042800081F308BF2033A3F10B03B3F120020CDA52
:104290000C3208DD02F1140CC2F10C0201FA0CF030
:1042A00021FA02F10CE002F11402D8BFC2F1200C95
:1042B00001FA02F120FA0CFCDCBF41EA0C0190404B
:1042C000E41AA2BF01EB0451294330BD6FEA040494
:1042D0001F3C1CDA0C340EDC04F11404C4F120027F
:1042E00020FA04F001FA02F340EA030021FA04F391
:1042F00045EA030130BDC4F10C04C4F1200220FAE8
:1043000002F001FA04F340EA0300294630BD21FA25
:1043100004F0294630BD94F0000F83F4801306BFEB
:1043200081F480110134013D4EE77FEA645C18BFDF
:104330007FEA655C29D094EA050F08BF90EA020F76
:1043400005D054EA000C04BF1946104630BD91EA6E
:10435000030F1EBF0021002030BD5FEA545C05D171
:104360004000494128BF41F0004130BD14F58004B0
:104370003CBF01F5801130BD01F0004545F0FE4124
:1043800041F470014FF0000030BD7FEA645C1ABF59
:10439000194610467FEA655C1CBF0B46024650EA90
:1043A000013406BF52EA033591EA030F41F40021BC
:1043B00030BD00BF90F0000F04BF0021704730B542
:1043C0004FF4806404F132044FF000054FF0000117
:1043D00050E700BF90F0000F04BF0021704730B5D8
:1043E0004FF4806404F1320410F0004548BF4042AD
:1043F0004FF000013EE700BF42004FEAE2014FEA02
:1044000031014FEA02701FBF12F07F4393F07F4FDC
:1044100081F06051704792F0000F14BF93F07F4F0E
:10442000704730B54FF4607401F0004521F0004151
:1044300020E700BF50EA010208BF704730B54FF0D7
:1044400000050AE050EA010208BF704730B511F0DC
:10445000004502D5404261EB41014FF4806404F114
:1044600032045FEA915C3FF4DCAE4FF003025FEA96
:10447000DC0C18BF03325FEADC0C18BF033202EB1E
:10448000DC02C2F1200300FA03FC20FA02F001FA78
:1044900003FE40EA0E0021FA02F11444C1E600BF17
:1044A00010B500231A0292B20821D40B01F1FF319A
:1044B0004FEA420218BF82F0D80211F0FF0192B217
:1044C000F3D120F813200133B3F5807FEAD110BD7A
:1044D00010B50446FFF7E4FF204610BD002330B5B9
:1044E00004461846934209DACD5C85EA102501336B
:1044F00034F8155085EA002080B2F3E730BDF8B5F6
:104500000E461546FDF76CFB0028FBD0FDF726FB99
:1045100001243070C7B2BC420CD2AC420AD2FDF7C3
:104520005FFB0028F9D0FDF719FB0134E4B206F86F
:10453000010FF0E7AC422CBF00200120F8BD70B5A0
:1045400004460D461646FDF74BFB50B1FDF706FB42
:10455000FF28F8D1204629463246BDE87040FFF7D3
:10456000CEBF70BD70B5064804680D461646FF21E3
:104570002268904728463146BDE87040FDF756BB9B
:10458000648AFF1F014B0360704700BF70D80000B2
:104590007047704710B5034B03600446FFF7C6FD34
:1045A000204610BD70D8000010B58260024C046037
:1045B00000220171027310BD70D80000007B7047AB
:1045C0000079704713B501228DF8052002798DF826
:1045D0000620002304460722694680688DF80130D2
:1045E0008DF804308DF80020ADF80230FFF776FF2B
:1045F0006946ADF802009DF80020A068FFF7B2FF01
:1046000002B010BD7047FFFF10B5034B03600446B6
:10461000FFF7B8FF204610BD90D8000010B5044643
:10462000FFF7F2FF2046FFF781FD204610BDFFFF98
:1046300070B5044686B0E830FFF7ACF8002852D0D9
:10464000FCF70EFF00284EDDFCF71AFF04F1100600
:10465000C1B2304602F048FE0A2300258DF805302D
:10466000204617238DF800308DF80150ADF8025028
:10467000FFF7A6FF8DF80400304602F05FFC02F061
:104680000DFBCDF80600304602F07AFC02F006FB86
:1046900084F88950CDF80A00D4F89000FEF754FE53
:1046A0001249FEF759FFD4F8B030ADF81230D4F803
:1046B000A030CDF80E00ADF814306946D4F8DC30E7
:1046C0009DF8002084F8A95084F89950A0688DF8CE
:1046D0001630FFF703FF6946ADF802009DF8002091
:1046E000A068FFF73FFF06B070BD00BF0000C842E2
:1046F00038B504461D46FFF757FF20460A4B40F8E1
:10470000103B02F041FB642104F1E800FFF736F8AA
:10471000064800EB5500B0FBF5F0FCF761FC2046C5
:10472000FFF750FF204638BD90D8000000449508A0
:104730007047FFFF10B5034B03600446FFF722FFED
:10474000204610BDB0D8000010B50446FFF7F2FFB8
:104750002046FFF7EBFC204610BD37B5044610306D
:10476000FFF718F810B3607BFEF7E2FB0023082286
:10477000054620468DF801308DF805208DF8002083
:10478000ADF80230FFF71CFF69468DF804009DF874
:104790000020A068ADF80650FFF7A0FE6946ADF80E
:1047A00002009DF80020A068FFF7DCFE03B030BDDA
:1047B00038B504461D46FFF7F7FE2046094B40F882
:1047C000103B6421FEF7DAFF002128466573FDF7F0
:1047D000ABFD0A20FEF782FB2046FFF7F3FE2046E2
:1047E00038BD00BFB0D80000014B0360704700BF68
:1047F000D0D80000807A704710B5034B03600446A0
:10480000FFF794FC204610BDD0D80000043040F2E1
:10481000DC5102F051BEC368994203DC5B4299420D
:10482000A8BF0B46002B04DA42699342A8BF134687
:1048300004E003D082699342B8BF134690F9102078
:1048400002FB03F1043001F2DC5102F035BEFFFF40
:1048500070B5043084790D4602F040FE22460346CE
:1048600002492846BDE8704007F0AAB8E8D8000021
:1048700010B5054B044640F8043B02F001FE034B23
:104880002360204610BD00BF18D90000D0D800001A
:1048900010B50446FFF7ECFF2046FFF747FC204623
:1048A00010BDFFFF2DE9F041054698460D4B45F838
:1048B000043B044628460E46174602F06DFD069B53
:1048C0006361079BA361C4F80C80A6722774284615
:1048D00031464FF47A724FF4FA6302F07DFD2046C0
:1048E000BDE8F08118D9000010B5054B044640F82A
:1048F000343B02F0C5FD2046FFF744FE204610BDC4
:1049000038D9000010B50446FFF7EEFF2046FFF748
:104910000DFC204610BD2830FEF73CBF70B54B792A
:10492000062B04461FD1D1F806608569304629461A
:10493000FEF71AFF30B9E56930462946FEF7F6FE64
:1049400000B9354621692846FEF752FD6169FEF738
:1049500047FC206302F0F2F9343401462046BDE8FA
:10496000704002F0A9BD0D2B0BD1D1F806300361C8
:10497000D1F80A304361D1F80E308361D1F812309A
:10498000C36170BD7FB504462030FEF703FF68B3F6
:104990000523002504F134008DF809308DF8055009
:1049A00002F09CFD0A23064620468DF80430ADF83F
:1049B0000650FFF705FE8DF808003046FEF7C4FCF0
:1049C0006169FEF70BFC2169FEF7C6FD01A9CDF870
:1049D0000A009DF80420A068FFF780FD01A9ADF84A
:1049E00006009DF80420A068FFF7BCFD04B070BD70
:1049F00070B504461E46FFF7D7FD2046174B40F81A
:104A0000203B3221FEF7BAFE04F134054FF47A71EF
:104A100004F12800FEF7B2FE284602F0BDFC049B1C
:104A20002361059B6361069BA361079BE3610023F0
:104A30004FF47A723146236366734FF4FA63284663
:104A400002F0CAFC606902F079F90146284602F0DA
:104A500033FD2046FFF7B6FD204670BD38D9000073
:104A6000014B0360704700BF58D900002DE9F04F9B
:104A7000D0F804B08BB08246BBF1000F00F0B280DA
:104A80008568002D00F0AE800469002C00F0AA803B
:104A90004369002B00F0A680C368002B00F0A280C1
:104AA000524B1B6809930998FFF784FC0022504B76
:104AB00001F05CFFDAE90623CDE90401FFF73CFBD6
:104AC000D5E90023CDE90201D4E90001FFF734FB69
:104AD000DAE9082380468946DAE91A0101F01CFE6A
:104AE000DDE9022306460F464046494601F014FE22
:104AF000DAE91623FFF722FBCAE91601DAE91423E3
:104B0000CDE90001D4E9000101F006FE3246CDE90D
:104B100006013B46DDE9000102F08EF810B1CAE95A
:104B200016670BE007F10045DDE9000132462B4630
:104B3000344602F063F808B1CAE91645DAE90E23F3
:104B40004046494601F0E8FDDAE9162304460D46E1
:104B5000DAE9100101F0E0FD02460B462046294645
:104B6000FFF7ECFADAE9182304460D4640464946B9
:104B7000FFF7E2FADDE9022301F0F8FEDAE9122399
:104B800001F0CAFD02460B4620462946FFF7D6FA39
:104B9000DDE90623FFF7D2FA04460D46CBE90045CE
:104BA000DAE9086732463B4602F046F808B1344677
:104BB0003D46CBE90045DAF82430DAF8206003F10D
:104BC00000472046294632463B4602F017F808B116
:104BD00034463D46DDE90423CBE90045CAE918899E
:104BE000CAE906230BB0BDE8F08F00BF108BFF1F92
:104BF00000408F4010B5034B03600446FFF796FA60
:104C0000204610BD58D9000073B5C0E90E23DDE978
:104C10000623C0E91023DDE90823C0E91223DDE9FA
:104C20000A23C0E91423154B15491B680193DDE9DC
:104C30000C45016000210646C0E90A4541608160DB
:104C4000C160016141610198FFF7B4FB00220D4B87
:104C500001F08CFE00220023C6E91823C6E91623C2
:104C6000094B0022C6E90601C6E908230E98FFF7A2
:104C7000C3FBC6E91A01304602B070BD108BFF1F9E
:104C800058D9000000408F4000407F40416070478D
:104C900081607047C1607047016170474161704732
:104CA000014B0360704700BF58D9000010B5034B9B
:104CB00003600446FFF73AFA204610BD58D90000B9
:104CC0002DE9F04F43688DB08246002B00F04981FA
:104CD0008368002B00F045810369002B00F04181BF
:104CE0004569002D00F03D81C468002C00F0398139
:104CF0008D4B1B680B930B98FFF75CFB00228B4BD3
:104D000001F034FEDAE90623CDE90601CDE90223FC
:104D1000D5E90001D4E90023FFF70EFA00220023B1
:104D200004460D46DAE90A67DAE91E8901F084FFD4
:104D300018B9224605F1004301E022462B464046C1
:104D4000494601F0E9FC04F0EFFB02460B46002067
:104D50007749FFF7F1F902460B463046394601F034
:104D6000DBFC002206460F46204629460023DAF8DF
:104D700010B001F061FF18B9B04607F1004901E039
:104D8000B046B946CBE90089DAE91423CDE9082316
:104D9000DAF808304046D3E900234946FFF7CCF95A
:104DA000DAE90823CDE90001CDE9042320462946AC
:104DB00000220023DAE91A6701F03EFF18B9204605
:104DC00005F1004101E020462946DAE91C2301F003
:104DD00033FF002800F09380DDE90223DDE90601BE
:104DE000FFF7AAF9DDE90423CDE90201304639468F
:104DF00001F092FCDDE9022306460F46DDE90001E1
:104E000001F08AFCDAE91623FFF798F932463B46AF
:104E1000CDE9040101F010FF10B1CAE9166710E0F6
:104E200007F10045DDE9040132462B46344601F026
:104E3000E5FE20B9DDE90423CAE9162301E0CAE949
:104E40001645DAE90E23DDE9000101F065FCDAE937
:104E5000162304460D46DAE9100101F05DFC024616
:104E60000B4620462946FFF769F9DAE9182304467C
:104E70000D46DDE90001FFF75FF9DDE9022301F0EE
:104E800075FDDAE9122301F047FC02460B46204685
:104E90002946FFF753F9DDE9082304460D4640464D
:104EA000494601F039FC02460B4620462946FFF7E9
:104EB00045F9DAF8046004460D46C6E90045DAE92A
:104EC000088942464B4601F0B7FE08B144464D46BC
:104ED000C6E90045DAF82430DAF8208003F1004909
:104EE0002046294642464B4601F088FE08B144461A
:104EF0004D460023C6E900458AF888302EE09AF82E
:104F000088303BB901238AF888300AF18000FEF727
:104F100061FC1AE09AF8893063B90AF18000FEF763
:104F200039FC38B1012319E0108BFF1F00408F407E
:104F30000000F03F9AF889303BB1DAF80410002203
:104F40000023CAE91623C1E90023DDE90023CAE9E9
:104F50001823DDE90623CAE9062302E08AF889302E
:104F6000F3E70DB0BDE8F08F70B58AB0DDE90E450E
:104F7000CDE90045DDE91045CDE90245DDE9124501
:104F8000CDE90445DDE91645189908910646CDE9B5
:104F90000645FFF739FE30460B4B40F8803BBDF825
:104FA0007010FEF7EBFBDDE91A23C6E91C23002392
:104FB00086F8883086F88930DDE914233046C6E962
:104FC0001E230AB070BD00BF70D9000008B5803044
:104FD000FEF7FEFB80B208BDD0E91E017047D0E9A4
:104FE0001C017047C0E91C2370478030FEF7E4BB0A
:104FF000C0E91E237047FFFF014B0360704700BFED
:1050000088D90000014B0360704700BF88D90000B9
:105010002030704701627047002070477047FFFFE3
:1050200010B5034B03600446FFF780F8204610BD1F
:1050300088D9000010B5034B03600446FFF776F8EB
:10504000204610BD88D9000010B50368017A1C788D
:1050500043681A78437A1A40837A0C4203F00303B8
:1050600018BF43F004030AB143F008039A10013B50
:1050700082720D2B14D8DFE803F0070A0D0A131013
:10508000070710130A0D0A07C368013307E0C36856
:10509000013B04E0C368023301E0C368023BC36024
:1050A00010BDFFFF08B5034BD3F88400FFF7CCFF1A
:1050B00008BD00BF648FFF1F08B5034BD3F8800005
:1050C000FFF7C2FF08BD00BF648FFF1F08B5024B8A
:1050D000D86FFFF7B9FF08BD648FFF1F08B5024BFB
:1050E000986FFFF7B1FF08BD648FFF1F08B5024B33
:1050F000586FFFF7A9FF08BD648FFF1F08B5024B6B
:10510000186FFFF7A1FF08BD648FFF1F08B5024BA2
:10511000D86EFFF799FF08BD648FFF1F08B5024BDB
:10512000986EFFF791FF08BD648FFF1F08B5024B13
:10513000586EFFF789FF08BD648FFF1F08B5024B4B
:10514000186EFFF781FF08BD648FFF1F08B5024B83
:10515000D86DFFF779FF08BD648FFF1F08B5024BBC
:10516000986DFFF771FF08BD648FFF1F08B5024BF4
:10517000586DFFF769FF08BD648FFF1F08B5024B2C
:10518000186DFFF761FF08BD648FFF1F08B5024B64
:10519000D86CFFF759FF08BD648FFF1F08B5024B9D
:1051A000986CFFF751FF08BD648FFF1F08B5024BD5
:1051B000586CFFF749FF08BD648FFF1F08B5024B0D
:1051C000186CFFF741FF08BD648FFF1F08B5024B45
:1051D000D86BFFF739FF08BD648FFF1F08B5024B7E
:1051E000986BFFF731FF08BD648FFF1F08B5024BB6
:1051F000586BFFF729FF08BD648FFF1F08B5024BEE
:10520000186BFFF721FF08BD648FFF1F08B5024B25
:10521000D86AFFF719FF08BD648FFF1F08B5024B5E
:10522000986AFFF711FF08BD648FFF1F08B5024B96
:10523000586AFFF709FF08BD648FFF1F08B5024BCE
:10524000186AFFF701FF08BD648FFF1F08B5024B06
:10525000D869FFF7F9FE08BD648FFF1F08B5024B40
:105260009869FFF7F1FE08BD648FFF1F08B5024B78
:105270005869FFF7E9FE08BD648FFF1F08B5024BB0
:105280001869FFF7E1FE08BD648FFF1F08B5024BE8
:10529000D868FFF7D9FE08BD648FFF1F08B5024B21
:1052A0009868FFF7D1FE08BD648FFF1F08B5024B59
:1052B0005868FFF7C9FE08BD648FFF1F08B5024B91
:1052C0001868FFF7C1FE08BD648FFF1F38B5037D66
:1052D000012B044604D872B60430FFF7B5FE00E097
:1052E00072B6206962B6FEF72FF8054694F91C00E5
:1052F000FEF72AF801462846FEF77AF80749FEF736
:1053000077F80146FDF76CFF0546A069FEF71CF82B
:1053100001462846FEF720F9206238BDDB0F4940E0
:1053200008B5212800F2D580DFE810F02200270020
:105330002C00310036003C00410046004B0050007C
:1053400055005A005F00640069006E007300780029
:105350007D00820087008C00910096009B00A000D9
:10536000A500AA00AF00B400B900BE00C300CD0084
:10537000594B002019605949A0E0574B0120596052
:1053800057499BE0544B02209960564996E0524B96
:105390000320D960544991E04F4B04201961024623
:1053A00052498CE04C4B05205961514986E04A4BEB
:1053B000062099614F4981E0474B0720D9614E494A
:1053C0007CE0454B082019624C4977E0424B0920AC
:1053D00059624B4972E0404B0A20996249496DE09D
:1053E0003D4B0B20D962484968E03B4B0C201963C8
:1053F000464963E0384B0D20596345495EE0364B22
:105400000E209963434959E0334B0F20D963424939
:1054100054E0314B1020196440494FE02E4B1120CD
:1054200059643F494AE02C4B122099643D4945E0BC
:10543000294B1320D9643C4940E0274B14201965BF
:105440003A493BE0244B15205965394936E0224B57
:1054500016209965374931E01F4B1720D965364929
:105460002CE01D4B18201966344927E01A4B1920EF
:105470005966334922E0184B1A20996631491DE0DC
:10548000154B1B20D966304918E0134B1C201967B7
:105490002E4913E0104B1D2059672D490EE00E4B8D
:1054A0001E2099672B4909E00B4B1F20D9672A4919
:1054B00004E0094BC3F88010284920200422FCF79F
:1054C00097FE012008BD044B2120C3F88410244915
:1054D000F4E7002008BD00BF648FFF1FBD5200002D
:1054E000AD5200009D5200008D5200007D52000020
:1054F0006D5200005D5200004D5200003D52000010
:105500002D5200001D5200000D520000FD51000000
:10551000ED510000DD510000CD510000BD510000F3
:10552000AD5100009D5100008D5100007D510000E3
:105530006D5100005D5100004D5100003D510000D3
:105540002D5100001D5100000D510000FD500000C4
:10555000ED500000DD500000CD500000B9500000BB
:10556000A55000002DE9F0419846224B0360044607
:1055700015460E4608460221FCF7D6FE28460221B3
:10558000FCF7D2FE1C4951F8362002F50073636027
:105590000123237351F83510637301F50070002364
:1055A0002361A0604BF68033013B7FF4FDAF92F89E
:1055B000002291F8003202F00102DB0744BF42F002
:1055C0000202D2B2271DA27339463046FFF7A8FE69
:1055D000394620752846FFF7A3FE237DC4F81880BE
:1055E00018449DF918302075237700232362204644
:1055F000BDE8F081B0D9000040D60000014B036047
:10560000704700BF88D900001030704701617047B3
:1056100001207047012902D0022902D07047826020
:105620007047C2607047FFFF10B5034B036004462C
:10563000FEF77CFD204610BD88D9000081607047D0
:10564000C160704713B504460079FDF771FC40F264
:10565000FF32009200230D2101F054F8FDF774FE93
:10566000A168FDF7C5FEE168FDF7BAFD02B010BD07
:10567000F8B504461F46084B03600D4616460A203F
:10568000FDF72CFC2571A660E7602046FFF7DAFFE6
:1056900020612046F8BD00BFD8D9000010B50446EF
:1056A000FFF7D0FF206110BD014B0360704700BFC2
:1056B00000DA0000014B0360704700BF00DA000011
:1056C00040697047C16070478160704710B5034BF7
:1056D00003600446FEF72AFD204610BD00DA0000F4
:1056E00010B5034B03600446FEF720FD204610BDB5
:1056F00000DA000007B5044B1B6801930198FDF721
:105700001FFE03B05DF804FB108BFF1FF8B50446C5
:10571000FFF7F0FF21690646FDF760FD0546A0682A
:10572000FDF70EFE01461048FDF716FF014628461C
:10573000FEF710F8B8B1606803681B689847E56821
:1057400001462846FDF754FE294607464FF07E5095
:10575000FDF744FD6169FDF74BFE01463846FDF754
:105760003FFD26616061F8BD00007A4438B51D46F2
:10577000074B8160C260036045600446FFF7BAFFD3
:105780002B6820611B68284698476061204638BD19
:1057900020DA0000014B0360704700BF00DA000010
:1057A00080697047C16070478160704710B5034BD6
:1057B00003600446FEF7BAFC204610BD00DA000084
:1057C00007B5044B1B6801930198FDF7B9FD03B0C1
:1057D0005DF804FB108BFF1F2DE9F8430446FFF72B
:1057E000EFFF61690746FDF7F9FC0646A068FDF783
:1057F000A7FD01461848FDF7AFFE01463046FDF70C
:10580000A9FF30B3606803681B6898472169E568A1
:105810008046FDF7E3FC104981463046FDF79CFECB
:1058200001464846FDF798FE01462846FDF7E0FD93
:10583000294606464FF07E50FDF7D0FCA169FDF7E2
:10584000D7FD01463046FDF7CBFCC4F81080A061BF
:105850006761BDE8F88300BF00007A4410B50446D4
:105860000848E2601A6863602060A1601268184608
:10587000904720612046FFF7A3FF00236061A361EA
:10588000204610BD40DA00007047FFFF10B5034B03
:1058900003600446FEF776FE204610BD60DA000085
:1058A00010B50446FFF7F2FF2046FEF73FFC204606
:1058B00010BD8979407B01B10121FCF707BDFFFFD5
:1058C00038B504461D46FEF76FFE064B236028469A
:1058D00001216573FCF728FD2046FEF773FE204684
:1058E00038BD00BF60DA0000014B0360704700BFA5
:1058F00080DA0000014B0360704700BF80DA0000CF
:1059000010B5034B03600446FEF710FC204610BDA3
:1059100080DA000010B5034B03600446FEF706FC76
:10592000204610BD80DA00002DE9F0410546B8B0F0
:105930000C46002900F0A8808068F0B10368C968AF
:105940009B689847A868E1880368DB68984700214E
:105950000F2214A8FAF724FE0021802218A8FAF7D3
:105960001FFE0721052214ABE068FDF7A7FB18A86E
:105970004749E38814AA06F023F8E868F0B1036801
:1059800021699B689847E86821890368DB68984724
:1059900000210F2214A8FAF703FE0021802218A884
:1059A000FAF7FEFD0721052214AB2069FDF786FBFF
:1059B00018A83749238914AA06F002F82D69002D8A
:1059C00062D0D4F818804046FEF716FDC5E90E01F6
:1059D000E069FEF711FDC5E91001206AFEF70CFD34
:1059E000C5E91201606AFEF707FDC5E914016069A7
:1059F000FEF702FD0F22C5E91A01002104A8FAF7FB
:105A0000CFFD0CAF00210F2208A8FAF7C9FD10AE98
:105A100000210F223846FAF7C3FD14AD00210F22F2
:105A20003046FAF7BDFD00210F222846FAF7B8FDEF
:105A30000021802218A8FAF7B3FD0721052204AB44
:105A40004046FDF73BFB0721052208ABE069FDF767
:105A500035FB072105223B46206AFDF72FFB072176
:105A600005223346606AFDF729FB072105222B46F4
:105A70006069FDF723FB00970196029518A8054978
:105A800004AA08AB05F09CFF38B0BDE8F08100BF68
:105A9000A8DA0000BBDA000010B5044600F046FAB0
:105AA000024B2360029B2361204610BD98DA000060
:105AB00010B504460123137094F84B2094F84C3031
:105AC000084612B123B9054903E00BB1044900E0CF
:105AD000044905F0A3FF0023237310BDE7DA00009B
